{
  "_format": "hh-sol-artifact-1",
  "contractName": "PolygonZkEVMBridgeV2",
  "sourceName": "contracts/v2/PolygonZkEVMBridgeV2.sol",
  "abi": [
    {
      "inputs": [],
      "stateMutability": "nonpayable",
      "type": "constructor"
    },
    {
      "inputs": [],
      "name": "AlreadyClaimed",
      "type": "error"
    },
    {
      "inputs": [],
      "name": "AmountDoesNotMatchMsgValue",
      "type": "error"
    },
    {
      "inputs": [],
      "name": "DestinationNetworkInvalid",
      "type": "error"
    },
    {
      "inputs": [],
      "name": "EtherTransferFailed",
      "type": "error"
    },
    {
      "inputs": [],
      "name": "FailedTokenWrappedDeployment",
      "type": "error"
    },
    {
      "inputs": [],
      "name": "GasTokenNetworkMustBeZeroOnEther",
      "type": "error"
    },
    {
      "inputs": [],
      "name": "GlobalExitRootInvalid",
      "type": "error"
    },
    {
      "inputs": [],
      "name": "InvalidSmtProof",
      "type": "error"
    },
    {
      "inputs": [],
      "name": "MerkleTreeFull",
      "type": "error"
    },
    {
      "inputs": [],
      "name": "MessageFailed",
      "type": "error"
    },
    {
      "inputs": [],
      "name": "MsgValueNotZero",
      "type": "error"
    },
    {
      "inputs": [],
      "name": "NativeTokenIsEther",
      "type": "error"
    },
    {
      "inputs": [],
      "name": "NoValueInMessagesOnGasTokenNetworks",
      "type": "error"
    },
    {
      "inputs": [],
      "name": "NotValidAmount",
      "type": "error"
    },
    {
      "inputs": [],
      "name": "NotValidOwner",
      "type": "error"
    },
    {
      "inputs": [],
      "name": "NotValidSignature",
      "type": "error"
    },
    {
      "inputs": [],
      "name": "NotValidSpender",
      "type": "error"
    },
    {
      "inputs": [],
      "name": "OnlyEmergencyState",
      "type": "error"
    },
    {
      "inputs": [],
      "name": "OnlyNotEmergencyState",
      "type": "error"
    },
    {
      "inputs": [],
      "name": "OnlyRollupManager",
      "type": "error"
    },
    {
      "anonymous": false,
      "inputs": [
        {
          "indexed": false,
          "internalType": "uint8",
          "name": "leafType",
          "type": "uint8"
        },
        {
          "indexed": false,
          "internalType": "uint32",
          "name": "originNetwork",
          "type": "uint32"
        },
        {
          "indexed": false,
          "internalType": "address",
          "name": "originAddress",
          "type": "address"
        },
        {
          "indexed": false,
          "internalType": "uint32",
          "name": "destinationNetwork",
          "type": "uint32"
        },
        {
          "indexed": false,
          "internalType": "address",
          "name": "destinationAddress",
          "type": "address"
        },
        {
          "indexed": false,
          "internalType": "uint256",
          "name": "amount",
          "type": "uint256"
        },
        {
          "indexed": false,
          "internalType": "bytes",
          "name": "metadata",
          "type": "bytes"
        },
        {
          "indexed": false,
          "internalType": "uint32",
          "name": "depositCount",
          "type": "uint32"
        }
      ],
      "name": "BridgeEvent",
      "type": "event"
    },
    {
      "anonymous": false,
      "inputs": [
        {
          "indexed": false,
          "internalType": "uint256",
          "name": "globalIndex",
          "type": "uint256"
        },
        {
          "indexed": false,
          "internalType": "uint32",
          "name": "originNetwork",
          "type": "uint32"
        },
        {
          "indexed": false,
          "internalType": "address",
          "name": "originAddress",
          "type": "address"
        },
        {
          "indexed": false,
          "internalType": "address",
          "name": "destinationAddress",
          "type": "address"
        },
        {
          "indexed": false,
          "internalType": "uint256",
          "name": "amount",
          "type": "uint256"
        }
      ],
      "name": "ClaimEvent",
      "type": "event"
    },
    {
      "anonymous": false,
      "inputs": [],
      "name": "EmergencyStateActivated",
      "type": "event"
    },
    {
      "anonymous": false,
      "inputs": [],
      "name": "EmergencyStateDeactivated",
      "type": "event"
    },
    {
      "anonymous": false,
      "inputs": [
        {
          "indexed": false,
          "internalType": "uint8",
          "name": "version",
          "type": "uint8"
        }
      ],
      "name": "Initialized",
      "type": "event"
    },
    {
      "anonymous": false,
      "inputs": [
        {
          "indexed": false,
          "internalType": "uint32",
          "name": "originNetwork",
          "type": "uint32"
        },
        {
          "indexed": false,
          "internalType": "address",
          "name": "originTokenAddress",
          "type": "address"
        },
        {
          "indexed": false,
          "internalType": "address",
          "name": "wrappedTokenAddress",
          "type": "address"
        },
        {
          "indexed": false,
          "internalType": "bytes",
          "name": "metadata",
          "type": "bytes"
        }
      ],
      "name": "NewWrappedToken",
      "type": "event"
    },
    {
      "inputs": [],
      "name": "WETHToken",
      "outputs": [
        {
          "internalType": "contract TokenWrapped",
          "name": "",
          "type": "address"
        }
      ],
      "stateMutability": "view",
      "type": "function"
    },
    {
      "inputs": [],
      "name": "activateEmergencyState",
      "outputs": [],
      "stateMutability": "nonpayable",
      "type": "function"
    },
    {
      "inputs": [],
      "name": "baseInitByteCodeWrappedToken",
      "outputs": [
        {
          "internalType": "bytes",
          "name": "",
          "type": "bytes"
        }
      ],
      "stateMutability": "view",
      "type": "function"
    },
    {
      "inputs": [
        {
          "internalType": "uint32",
          "name": "destinationNetwork",
          "type": "uint32"
        },
        {
          "internalType": "address",
          "name": "destinationAddress",
          "type": "address"
        },
        {
          "internalType": "uint256",
          "name": "amount",
          "type": "uint256"
        },
        {
          "internalType": "address",
          "name": "token",
          "type": "address"
        },
        {
          "internalType": "bool",
          "name": "forceUpdateGlobalExitRoot",
          "type": "bool"
        },
        {
          "internalType": "bytes",
          "name": "permitData",
          "type": "bytes"
        }
      ],
      "name": "bridgeAsset",
      "outputs": [],
      "stateMutability": "payable",
      "type": "function"
    },
    {
      "inputs": [
        {
          "internalType": "uint32",
          "name": "destinationNetwork",
          "type": "uint32"
        },
        {
          "internalType": "address",
          "name": "destinationAddress",
          "type": "address"
        },
        {
          "internalType": "bool",
          "name": "forceUpdateGlobalExitRoot",
          "type": "bool"
        },
        {
          "internalType": "bytes",
          "name": "metadata",
          "type": "bytes"
        }
      ],
      "name": "bridgeMessage",
      "outputs": [],
      "stateMutability": "payable",
      "type": "function"
    },
    {
      "inputs": [
        {
          "internalType": "uint32",
          "name": "destinationNetwork",
          "type": "uint32"
        },
        {
          "internalType": "address",
          "name": "destinationAddress",
          "type": "address"
        },
        {
          "internalType": "uint256",
          "name": "amountWETH",
          "type": "uint256"
        },
        {
          "internalType": "bool",
          "name": "forceUpdateGlobalExitRoot",
          "type": "bool"
        },
        {
          "internalType": "bytes",
          "name": "metadata",
          "type": "bytes"
        }
      ],
      "name": "bridgeMessageWETH",
      "outputs": [],
      "stateMutability": "nonpayable",
      "type": "function"
    },
    {
      "inputs": [
        {
          "internalType": "bytes32",
          "name": "leafHash",
          "type": "bytes32"
        },
        {
          "internalType": "bytes32[32]",
          "name": "smtProof",
          "type": "bytes32[32]"
        },
        {
          "internalType": "uint32",
          "name": "index",
          "type": "uint32"
        }
      ],
      "name": "calculateRoot",
      "outputs": [
        {
          "internalType": "bytes32",
          "name": "",
          "type": "bytes32"
        }
      ],
      "stateMutability": "pure",
      "type": "function"
    },
    {
      "inputs": [
        {
          "internalType": "uint32",
          "name": "originNetwork",
          "type": "uint32"
        },
        {
          "internalType": "address",
          "name": "originTokenAddress",
          "type": "address"
        },
        {
          "internalType": "address",
          "name": "token",
          "type": "address"
        }
      ],
      "name": "calculateTokenWrapperAddress",
      "outputs": [
        {
          "internalType": "address",
          "name": "",
          "type": "address"
        }
      ],
      "stateMutability": "view",
      "type": "function"
    },
    {
      "inputs": [
        {
          "internalType": "bytes32[32]",
          "name": "smtProofLocalExitRoot",
          "type": "bytes32[32]"
        },
        {
          "internalType": "bytes32[32]",
          "name": "smtProofRollupExitRoot",
          "type": "bytes32[32]"
        },
        {
          "internalType": "uint256",
          "name": "globalIndex",
          "type": "uint256"
        },
        {
          "internalType": "bytes32",
          "name": "mainnetExitRoot",
          "type": "bytes32"
        },
        {
          "internalType": "bytes32",
          "name": "rollupExitRoot",
          "type": "bytes32"
        },
        {
          "internalType": "uint32",
          "name": "originNetwork",
          "type": "uint32"
        },
        {
          "internalType": "address",
          "name": "originTokenAddress",
          "type": "address"
        },
        {
          "internalType": "uint32",
          "name": "destinationNetwork",
          "type": "uint32"
        },
        {
          "internalType": "address",
          "name": "destinationAddress",
          "type": "address"
        },
        {
          "internalType": "uint256",
          "name": "amount",
          "type": "uint256"
        },
        {
          "internalType": "bytes",
          "name": "metadata",
          "type": "bytes"
        }
      ],
      "name": "claimAsset",
      "outputs": [],
      "stateMutability": "nonpayable",
      "type": "function"
    },
    {
      "inputs": [
        {
          "internalType": "bytes32[32]",
          "name": "smtProofLocalExitRoot",
          "type": "bytes32[32]"
        },
        {
          "internalType": "bytes32[32]",
          "name": "smtProofRollupExitRoot",
          "type": "bytes32[32]"
        },
        {
          "internalType": "uint256",
          "name": "globalIndex",
          "type": "uint256"
        },
        {
          "internalType": "bytes32",
          "name": "mainnetExitRoot",
          "type": "bytes32"
        },
        {
          "internalType": "bytes32",
          "name": "rollupExitRoot",
          "type": "bytes32"
        },
        {
          "internalType": "uint32",
          "name": "originNetwork",
          "type": "uint32"
        },
        {
          "internalType": "address",
          "name": "originAddress",
          "type": "address"
        },
        {
          "internalType": "uint32",
          "name": "destinationNetwork",
          "type": "uint32"
        },
        {
          "internalType": "address",
          "name": "destinationAddress",
          "type": "address"
        },
        {
          "internalType": "uint256",
          "name": "amount",
          "type": "uint256"
        },
        {
          "internalType": "bytes",
          "name": "metadata",
          "type": "bytes"
        }
      ],
      "name": "claimMessage",
      "outputs": [],
      "stateMutability": "nonpayable",
      "type": "function"
    },
    {
      "inputs": [
        {
          "internalType": "uint256",
          "name": "",
          "type": "uint256"
        }
      ],
      "name": "claimedBitMap",
      "outputs": [
        {
          "internalType": "uint256",
          "name": "",
          "type": "uint256"
        }
      ],
      "stateMutability": "view",
      "type": "function"
    },
    {
      "inputs": [],
      "name": "deactivateEmergencyState",
      "outputs": [],
      "stateMutability": "nonpayable",
      "type": "function"
    },
    {
      "inputs": [],
      "name": "depositCount",
      "outputs": [
        {
          "internalType": "uint256",
          "name": "",
          "type": "uint256"
        }
      ],
      "stateMutability": "view",
      "type": "function"
    },
    {
      "inputs": [],
      "name": "gasTokenAddress",
      "outputs": [
        {
          "internalType": "address",
          "name": "",
          "type": "address"
        }
      ],
      "stateMutability": "view",
      "type": "function"
    },
    {
      "inputs": [],
      "name": "gasTokenMetadata",
      "outputs": [
        {
          "internalType": "bytes",
          "name": "",
          "type": "bytes"
        }
      ],
      "stateMutability": "view",
      "type": "function"
    },
    {
      "inputs": [],
      "name": "gasTokenNetwork",
      "outputs": [
        {
          "internalType": "uint32",
          "name": "",
          "type": "uint32"
        }
      ],
      "stateMutability": "view",
      "type": "function"
    },
    {
      "inputs": [],
      "name": "getBaseInitTokenWrapper",
      "outputs": [
        {
          "internalType": "bytes",
          "name": "bytecode",
          "type": "bytes"
        }
      ],
      "stateMutability": "view",
      "type": "function"
    },
    {
      "inputs": [
        {
          "internalType": "uint8",
          "name": "leafType",
          "type": "uint8"
        },
        {
          "internalType": "uint32",
          "name": "originNetwork",
          "type": "uint32"
        },
        {
          "internalType": "address",
          "name": "originAddress",
          "type": "address"
        },
        {
          "internalType": "uint32",
          "name": "destinationNetwork",
          "type": "uint32"
        },
        {
          "internalType": "address",
          "name": "destinationAddress",
          "type": "address"
        },
        {
          "internalType": "uint256",
          "name": "amount",
          "type": "uint256"
        },
        {
          "internalType": "bytes32",
          "name": "metadataHash",
          "type": "bytes32"
        }
      ],
      "name": "getLeafValue",
      "outputs": [
        {
          "internalType": "bytes32",
          "name": "",
          "type": "bytes32"
        }
      ],
      "stateMutability": "pure",
      "type": "function"
    },
    {
      "inputs": [],
      "name": "getRoot",
      "outputs": [
        {
          "internalType": "bytes32",
          "name": "",
          "type": "bytes32"
        }
      ],
      "stateMutability": "view",
      "type": "function"
    },
    {
      "inputs": [
        {
          "internalType": "address",
          "name": "token",
          "type": "address"
        }
      ],
      "name": "getTokenMetadata",
      "outputs": [
        {
          "internalType": "bytes",
          "name": "",
          "type": "bytes"
        }
      ],
      "stateMutability": "view",
      "type": "function"
    },
    {
      "inputs": [
        {
          "internalType": "uint32",
          "name": "originNetwork",
          "type": "uint32"
        },
        {
          "internalType": "address",
          "name": "originTokenAddress",
          "type": "address"
        }
      ],
      "name": "getTokenWrappedAddress",
      "outputs": [
        {
          "internalType": "address",
          "name": "",
          "type": "address"
        }
      ],
      "stateMutability": "view",
      "type": "function"
    },
    {
      "inputs": [],
      "name": "globalExitRootManager",
      "outputs": [
        {
          "internalType": "contract IBasePolygonZkEVMGlobalExitRoot",
          "name": "",
          "type": "address"
        }
      ],
      "stateMutability": "view",
      "type": "function"
    },
    {
      "inputs": [
        {
          "internalType": "uint32",
          "name": "_networkID",
          "type": "uint32"
        },
        {
          "internalType": "address",
          "name": "_gasTokenAddress",
          "type": "address"
        },
        {
          "internalType": "uint32",
          "name": "_gasTokenNetwork",
          "type": "uint32"
        },
        {
          "internalType": "contract IBasePolygonZkEVMGlobalExitRoot",
          "name": "_globalExitRootManager",
          "type": "address"
        },
        {
          "internalType": "address",
          "name": "_polygonRollupManager",
          "type": "address"
        },
        {
          "internalType": "bytes",
          "name": "_gasTokenMetadata",
          "type": "bytes"
        }
      ],
      "name": "initialize",
      "outputs": [],
      "stateMutability": "nonpayable",
      "type": "function"
    },
    {
      "inputs": [
        {
          "internalType": "uint32",
          "name": "leafIndex",
          "type": "uint32"
        },
        {
          "internalType": "uint32",
          "name": "sourceBridgeNetwork",
          "type": "uint32"
        }
      ],
      "name": "isClaimed",
      "outputs": [
        {
          "internalType": "bool",
          "name": "",
          "type": "bool"
        }
      ],
      "stateMutability": "view",
      "type": "function"
    },
    {
      "inputs": [],
      "name": "isEmergencyState",
      "outputs": [
        {
          "internalType": "bool",
          "name": "",
          "type": "bool"
        }
      ],
      "stateMutability": "view",
      "type": "function"
    },
    {
      "inputs": [],
      "name": "lastUpdatedDepositCount",
      "outputs": [
        {
          "internalType": "uint32",
          "name": "",
          "type": "uint32"
        }
      ],
      "stateMutability": "view",
      "type": "function"
    },
    {
      "inputs": [],
      "name": "networkID",
      "outputs": [
        {
          "internalType": "uint32",
          "name": "",
          "type": "uint32"
        }
      ],
      "stateMutability": "view",
      "type": "function"
    },
    {
      "inputs": [],
      "name": "polygonRollupManager",
      "outputs": [
        {
          "internalType": "address",
          "name": "",
          "type": "address"
        }
      ],
      "stateMutability": "view",
      "type": "function"
    },
    {
      "inputs": [
        {
          "internalType": "uint32",
          "name": "originNetwork",
          "type": "uint32"
        },
        {
          "internalType": "address",
          "name": "originTokenAddress",
          "type": "address"
        },
        {
          "internalType": "string",
          "name": "name",
          "type": "string"
        },
        {
          "internalType": "string",
          "name": "symbol",
          "type": "string"
        },
        {
          "internalType": "uint8",
          "name": "decimals",
          "type": "uint8"
        }
      ],
      "name": "precalculatedWrapperAddress",
      "outputs": [
        {
          "internalType": "address",
          "name": "",
          "type": "address"
        }
      ],
      "stateMutability": "view",
      "type": "function"
    },
    {
      "inputs": [
        {
          "internalType": "bytes32",
          "name": "",
          "type": "bytes32"
        }
      ],
      "name": "tokenInfoToWrappedToken",
      "outputs": [
        {
          "internalType": "address",
          "name": "",
          "type": "address"
        }
      ],
      "stateMutability": "view",
      "type": "function"
    },
    {
      "inputs": [
        {
          "internalType": "bytes",
          "name": "newWrappedToken",
          "type": "bytes"
        }
      ],
      "name": "updateBaseInitTokenWrapper",
      "outputs": [],
      "stateMutability": "nonpayable",
      "type": "function"
    },
    {
      "inputs": [],
      "name": "updateGlobalExitRoot",
      "outputs": [],
      "stateMutability": "nonpayable",
      "type": "function"
    },
    {
      "inputs": [
        {
          "internalType": "bytes32",
          "name": "leafHash",
          "type": "bytes32"
        },
        {
          "internalType": "bytes32[32]",
          "name": "smtProof",
          "type": "bytes32[32]"
        },
        {
          "internalType": "uint32",
          "name": "index",
          "type": "uint32"
        },
        {
          "internalType": "bytes32",
          "name": "root",
          "type": "bytes32"
        }
      ],
      "name": "verifyMerkleProof",
      "outputs": [
        {
          "internalType": "bool",
          "name": "",
          "type": "bool"
        }
      ],
      "stateMutability": "pure",
      "type": "function"
    },
    {
      "inputs": [
        {
          "internalType": "address",
          "name": "",
          "type": "address"
        }
      ],
      "name": "wrappedTokenToTokenInfo",
      "outputs": [
        {
          "internalType": "uint32",
          "name": "originNetwork",
          "type": "uint32"
        },
        {
          "internalType": "address",
          "name": "originTokenAddress",
          "type": "address"
        }
      ],
      "stateMutability": "view",
      "type": "function"
    }
  ],
  "bytecode": "0x611be0604052611b22608081815290620041da60a039606990620000249082620001a1565b5034801562000031575f80fd5b506200003c62000042565b62000269565b5f54610100900460ff1615620000ae5760405162461bcd60e51b815260206004820152602760248201527f496e697469616c697a61626c653a20636f6e747261637420697320696e697469604482015266616c697a696e6760c81b606482015260840160405180910390fd5b5f5460ff9081161015620000ff575f805460ff191660ff9081179091556040519081527f7f26b83ff96e1f2b6a682f133852f6798a09c465da95921460cefb38474024989060200160405180910390a15b565b634e487b7160e01b5f52604160045260245ffd5b600181811c908216806200012a57607f821691505b6020821081036200014957634e487b7160e01b5f52602260045260245ffd5b50919050565b601f8211156200019c575f81815260208120601f850160051c81016020861015620001775750805b601f850160051c820191505b81811015620001985782815560010162000183565b5050505b505050565b81516001600160401b03811115620001bd57620001bd62000101565b620001d581620001ce845462000115565b846200014f565b602080601f8311600181146200020b575f8415620001f35750858301515b5f19600386901b1c1916600185901b17855562000198565b5f85815260208120601f198616915b828110156200023b578886015182559484019460019091019084016200021a565b50858210156200025957878501515f19600388901b60f8161c191681555b5050505050600190811b01905550565b613f6380620002775f395ff3fe60806040526004361061020f575f3560e01c806383f2440311610117578063cc461632116100ac578063dbc169761161007c578063f5efcd7911610062578063f5efcd7914610635578063f811bff714610654578063fb57083414610673575f80fd5b8063dbc16976146105f6578063ee25560b1461060a575f80fd5b8063cc4616321461057e578063ccaa2d111461059d578063cd586579146105bc578063d02103ca146105cf575f80fd5b8063b8b284d0116100e7578063b8b284d014610501578063bab161bf14610520578063be5831c71461053c578063c00f14ab1461055f575f80fd5b806383f24403146104905780638ed7e3f2146104af578063a2ae7d1d146104ce578063aaa13cc2146104e2575f80fd5b80633cbc795b116101a75780635ca1e1651161017757806379e2cf971161015d57806379e2cf9714610429578063807620bc1461043d57806381b1c1741461045c575f80fd5b80635ca1e165146103f65780637843298b1461040a575f80fd5b80633cbc795b1461036c5780633e197043146103a45780634b2f336d146103c357806356a34ad5146103e2575f80fd5b806327aef4e8116101e257806327aef4e8146102a15780632dfdf0b5146102c2578063318aee3d146102e55780633c351e101461034d575f80fd5b806315064c96146102135780632072f6c51461024157806322e95f2c14610257578063240ff3781461028e575b5f80fd5b34801561021e575f80fd5b5060685461022c9060ff1681565b60405190151581526020015b60405180910390f35b34801561024c575f80fd5b50610255610692565b005b348015610262575f80fd5b50610276610271366004613018565b6106c7565b6040516001600160a01b039091168152602001610238565b61025561029c36600461309f565b610731565b3480156102ac575f80fd5b506102b56107ba565b6040516102389190613161565b3480156102cd575f80fd5b506102d760535481565b604051908152602001610238565b3480156102f0575f80fd5b506103296102ff36600461317a565b606d6020525f908152604090205463ffffffff81169064010000000090046001600160a01b031682565b6040805163ffffffff90931683526001600160a01b03909116602083015201610238565b348015610358575f80fd5b50606f54610276906001600160a01b031681565b348015610377575f80fd5b50606f5461038f90600160a01b900463ffffffff1681565b60405163ffffffff9091168152602001610238565b3480156103af575f80fd5b506102d76103be3660046131a3565b610846565b3480156103ce575f80fd5b50607154610276906001600160a01b031681565b3480156103ed575f80fd5b506102b56108ef565b348015610401575f80fd5b506102d76108fc565b348015610415575f80fd5b5061027661042436600461321d565b6109d8565b348015610434575f80fd5b50610255610a01565b348015610448575f80fd5b50610255610457366004613263565b610a22565b348015610467575f80fd5b506102766104763660046132a2565b606c6020525f90815260409020546001600160a01b031681565b34801561049b575f80fd5b506102d76104aa3660046132ca565b610a34565b3480156104ba575f80fd5b50606e54610276906001600160a01b031681565b3480156104d9575f80fd5b506102b5610b09565b3480156104ed575f80fd5b506102766104fc3660046133cb565b610b99565b34801561050c575f80fd5b5061025561051b366004613461565b610cbe565b34801561052b575f80fd5b50606a5461038f9063ffffffff1681565b348015610547575f80fd5b50606a5461038f90600160c01b900463ffffffff1681565b34801561056a575f80fd5b506102b561057936600461317a565b610d99565b348015610589575f80fd5b5061022c6105983660046134df565b610dde565b3480156105a8575f80fd5b506102556105b7366004613510565b610e61565b6102556105ca3660046135f4565b611388565b3480156105da575f80fd5b50606a546102769064010000000090046001600160a01b031681565b348015610601575f80fd5b506102556117ea565b348015610615575f80fd5b506102d76106243660046132a2565b606b6020525f908152604090205481565b348015610640575f80fd5b5061025561064f366004613510565b61181d565b34801561065f575f80fd5b5061025561066e366004613684565b611ade565b34801561067e575f80fd5b5061022c61068d366004613727565b611dd3565b606e546001600160a01b031633146106bd57604051631736745960e31b815260040160405180910390fd5b6106c5611dea565b565b6040805160e084901b6001600160e01b031916602080830191909152606084901b6bffffffffffffffffffffffff1916602483015282516018818403018152603890920183528151918101919091205f908152606c90915220546001600160a01b03165b92915050565b60685460ff161561075557604051630bc011ff60e21b815260040160405180910390fd5b341580159061076e57506071546001600160a01b031615155b156107a5576040517f6f625c4000000000000000000000000000000000000000000000000000000000815260040160405180910390fd5b6107b3858534868686611e45565b5050505050565b607080546107c79061376c565b80601f01602080910402602001604051908101604052809291908181526020018280546107f39061376c565b801561083e5780601f106108155761010080835404028352916020019161083e565b820191905f5260205f20905b81548152906001019060200180831161082157829003601f168201915b505050505081565b6040517fff0000000000000000000000000000000000000000000000000000000000000060f889901b1660208201526001600160e01b031960e088811b821660218401526bffffffffffffffffffffffff19606089811b821660258601529188901b909216603984015285901b16603d82015260518101839052607181018290525f90609101604051602081830303815290604052805190602001209050979650505050505050565b606980546107c79061376c565b6053545f90819081805b60208110156109cf578083901c6001166001036109635760338160208110610930576109306137a4565b01546040805160208101929092528101859052606001604051602081830303815290604052805190602001209350610990565b60408051602081018690529081018390526060016040516020818303038152906040528051906020012093505b604080516020810184905290810183905260600160405160208183030381529060405280519060200120915080806109c7906137cc565b915050610906565b50919392505050565b5f6109f984846109e785611f01565b6109f086611feb565b6104fc876120cc565b949350505050565b605354606a54600160c01b900463ffffffff1610156106c5576106c5612199565b6069610a2f828483613829565b505050565b5f83815b6020811015610b0057600163ffffffff8516821c81169003610aa357848160208110610a6657610a666137a4565b602002013582604051602001610a86929190918252602082015260400190565b604051602081830303815290604052805190602001209150610aee565b81858260208110610ab657610ab66137a4565b6020020135604051602001610ad5929190918252602082015260400190565b6040516020818303038152906040528051906020012091505b80610af8816137cc565b915050610a38565b50949350505050565b606060698054610b189061376c565b80601f0160208091040260200160405190810160405280929190818152602001828054610b449061376c565b8015610b8f5780601f10610b6657610100808354040283529160200191610b8f565b820191905f5260205f20905b815481529060010190602001808311610b7257829003601f168201915b5050505050905090565b6040516001600160e01b031960e087901b1660208201526bffffffffffffffffffffffff19606086901b1660248201525f9081906038016040516020818303038152906040528051906020012090505f60ff60f81b30836069898989604051602001610c07939291906138e4565b60408051601f1981840301815290829052610c25929160200161391c565b60405160208183030381529060405280519060200120604051602001610c9a94939291907fff0000000000000000000000000000000000000000000000000000000000000094909416845260609290921b6bffffffffffffffffffffffff191660018401526015830152603582015260550190565b60408051808303601f19018152919052805160209091012098975050505050505050565b60685460ff1615610ce257604051630bc011ff60e21b815260040160405180910390fd5b6071546001600160a01b0316610d24576040517fdde3cda700000000000000000000000000000000000000000000000000000000815260040160405180910390fd5b607154604051632770a7eb60e21b8152336004820152602481018690526001600160a01b0390911690639dc29fac906044015f604051808303815f87803b158015610d6d575f80fd5b505af1158015610d7f573d5f803e3d5ffd5b50505050610d91868686868686611e45565b505050505050565b6060610da482611f01565b610dad83611feb565b610db6846120cc565b604051602001610dc8939291906138e4565b6040516020818303038152906040529050919050565b606a545f90819063ffffffff16158015610dfe575063ffffffff83166001145b15610e10575063ffffffff8316610e38565b610e2564010000000063ffffffff851661399f565b610e359063ffffffff86166139b6565b90505b600881901c5f908152606b6020526040902054600160ff9092169190911b908116149392505050565b60685460ff1615610e8557604051630bc011ff60e21b815260040160405180910390fd5b606a5463ffffffff868116911614610eb0576040516302caf51760e11b815260040160405180910390fd5b610ee38c8c8c8c8c610ede5f8e8e8e8e8e8e8e604051610ed19291906139c9565b6040518091039020610846565b612246565b6001600160a01b03861661102d576071546001600160a01b0316610fc7575f6001600160a01b03851684825b6040519080825280601f01601f191660200182016040528015610f39576020820181803683370190505b50604051610f4791906139d8565b5f6040518083038185875af1925050503d805f8114610f81576040519150601f19603f3d011682016040523d82523d5f602084013e610f86565b606091505b5050905080610fc1576040517f6747a28800000000000000000000000000000000000000000000000000000000815260040160405180910390fd5b5061131e565b6071546040516340c10f1960e01b81526001600160a01b03868116600483015260248201869052909116906340c10f19906044015f604051808303815f87803b158015611012575f80fd5b505af1158015611024573d5f803e3d5ffd5b5050505061131e565b606f546001600160a01b03878116911614801561105b5750606f5463ffffffff888116600160a01b90920416145b15611072575f6001600160a01b0385168482610f0f565b606a5463ffffffff9081169088160361109e576110996001600160a01b03871685856123d7565b61131e565b6040516001600160e01b031960e089901b1660208201526bffffffffffffffffffffffff19606088901b1660248201525f9060380160408051601f1981840301815291815281516020928301205f818152606c9093529120549091506001600160a01b0316806112bd575f6111488386868080601f0160208091040260200160405190810160405280939291908181526020018383808284375f9201919091525061245392505050565b6040516340c10f1960e01b81526001600160a01b03898116600483015260248201899052919250908216906340c10f19906044015f604051808303815f87803b158015611193575f80fd5b505af11580156111a5573d5f803e3d5ffd5b5050505080606c5f8581526020019081526020015f205f6101000a8154816001600160a01b0302191690836001600160a01b0316021790555060405180604001604052808b63ffffffff1681526020018a6001600160a01b0316815250606d5f836001600160a01b03166001600160a01b031681526020019081526020015f205f820151815f015f6101000a81548163ffffffff021916908363ffffffff1602179055506020820151815f0160046101000a8154816001600160a01b0302191690836001600160a01b031602179055509050507f490e59a1701b938786ac72570a1efeac994a3dbe96e2e883e19e902ace6e6a398a8a8388886040516112af959493929190613a1b565b60405180910390a15061131b565b6040516340c10f1960e01b81526001600160a01b038781166004830152602482018790528216906340c10f19906044015f604051808303815f87803b158015611304575f80fd5b505af1158015611316573d5f803e3d5ffd5b505050505b50505b604080518b815263ffffffff891660208201526001600160a01b0388811682840152861660608201526080810185905290517f1df3f2a973a00d6635911755c260704e95e8a5876997546798770f76396fda4d9181900360a00190a1505050505050505050505050565b60685460ff16156113ac57604051630bc011ff60e21b815260040160405180910390fd5b6113b46124cc565b606a5463ffffffff908116908816036113e0576040516302caf51760e11b815260040160405180910390fd5b5f806060876001600160a01b0388166114dc5788341461142c576040517fb89240f500000000000000000000000000000000000000000000000000000000815260040160405180910390fd5b606f54607080546001600160a01b0383169650600160a01b90920463ffffffff169450906114599061376c565b80601f01602080910402602001604051908101604052809291908181526020018280546114859061376c565b80156114d05780601f106114a7576101008083540402835291602001916114d0565b820191905f5260205f20905b8154815290600101906020018083116114b357829003601f168201915b50505050509150611761565b3415611514576040517f798ee6f100000000000000000000000000000000000000000000000000000000815260040160405180910390fd5b6071546001600160a01b039081169089160361158a57604051632770a7eb60e21b8152336004820152602481018a90526001600160a01b03891690639dc29fac906044015f604051808303815f87803b15801561156f575f80fd5b505af1158015611581573d5f803e3d5ffd5b50505050611761565b6001600160a01b038089165f908152606d602090815260409182902082518084019093525463ffffffff811683526401000000009004909216918101829052901561163c57604051632770a7eb60e21b8152336004820152602481018b90526001600160a01b038a1690639dc29fac906044015f604051808303815f87803b158015611614575f80fd5b505af1158015611626573d5f803e3d5ffd5b5050505080602001519450805f01519350611754565b851561164e5761164e898b8989612525565b6040516370a0823160e01b81523060048201525f906001600160a01b038b16906370a0823190602401602060405180830381865afa158015611692573d5f803e3d5ffd5b505050506040513d601f19601f820116820180604052508101906116b69190613a53565b90506116cd6001600160a01b038b1633308e6128c4565b6040516370a0823160e01b81523060048201525f906001600160a01b038c16906370a0823190602401602060405180830381865afa158015611711573d5f803e3d5ffd5b505050506040513d601f19601f820116820180604052508101906117359190613a53565b90506117418282613a6a565b606a548c985063ffffffff169650935050505b61175d89610d99565b9250505b7f501781209a1f8899323b96b4ef08b168df93e0a90c673d1e4cce39366cb62f9b5f84868e8e86886053546040516117a0989796959493929190613a7d565b60405180910390a16117c66117c15f85878f8f878980519060200120610846565b612915565b86156117d4576117d4612199565b505050506117e160018055565b50505050505050565b606e546001600160a01b0316331461181557604051631736745960e31b815260040160405180910390fd5b6106c5612a16565b60685460ff161561184157604051630bc011ff60e21b815260040160405180910390fd5b606a5463ffffffff86811691161461186c576040516302caf51760e11b815260040160405180910390fd5b61188e8c8c8c8c8c610ede60018e8e8e8e8e8e8e604051610ed19291906139c9565b6071545f906001600160a01b031661194157846001600160a01b031684888a86866040516024016118c29493929190613ae6565b60408051601f198184030181529181526020820180516001600160e01b0316630c035af960e11b179052516118f791906139d8565b5f6040518083038185875af1925050503d805f8114611931576040519150601f19603f3d011682016040523d82523d5f602084013e611936565b606091505b505080915050611a3c565b6071546040516340c10f1960e01b81526001600160a01b03878116600483015260248201879052909116906340c10f19906044015f604051808303815f87803b15801561198c575f80fd5b505af115801561199e573d5f803e3d5ffd5b50505050846001600160a01b0316878985856040516024016119c39493929190613ae6565b60408051601f198184030181529181526020820180516001600160e01b0316630c035af960e11b179052516119f891906139d8565b5f604051808303815f865af19150503d805f8114611a31576040519150601f19603f3d011682016040523d82523d5f602084013e611a36565b606091505b50909150505b80611a73576040517f37e391c300000000000000000000000000000000000000000000000000000000815260040160405180910390fd5b604080518c815263ffffffff8a1660208201526001600160a01b0389811682840152871660608201526080810186905290517f1df3f2a973a00d6635911755c260704e95e8a5876997546798770f76396fda4d9181900360a00190a150505050505050505050505050565b5f54610100900460ff1615808015611afc57505f54600160ff909116105b80611b155750303b158015611b1557505f5460ff166001145b611b8c5760405162461bcd60e51b815260206004820152602e60248201527f496e697469616c697a61626c653a20636f6e747261637420697320616c72656160448201527f647920696e697469616c697a656400000000000000000000000000000000000060648201526084015b60405180910390fd5b5f805460ff191660011790558015611bad575f805461ff0019166101001790555b606a80546001600160a01b03808716640100000000027fffffffffffffffff00000000000000000000000000000000000000000000000090921663ffffffff8b161791909117909155606e805485831673ffffffffffffffffffffffffffffffffffffffff199091161790558616611c625763ffffffff851615611c5d576040517f1a874c1200000000000000000000000000000000000000000000000000000000815260040160405180910390fd5b611d7e565b606f805463ffffffff8716600160a01b027fffffffffffffffff0000000000000000000000000000000000000000000000009091166001600160a01b038916171790556070611cb18382613b1e565b50611d505f801b6012604051602001611d3c91906060808252600d908201527f5772617070656420457468657200000000000000000000000000000000000000608082015260a0602082018190526004908201527f574554480000000000000000000000000000000000000000000000000000000060c082015260ff91909116604082015260e00190565b604051602081830303815290604052612453565b6071805473ffffffffffffffffffffffffffffffffffffffff19166001600160a01b03929092169190911790555b611d86612a86565b80156117e1575f805461ff0019169055604051600181527f7f26b83ff96e1f2b6a682f133852f6798a09c465da95921460cefb38474024989060200160405180910390a150505050505050565b5f81611de0868686610a34565b1495945050505050565b60685460ff1615611e0e57604051630bc011ff60e21b815260040160405180910390fd5b6068805460ff191660011790556040517f2261efe5aef6fedc1fd1550b25facc9181745623049c7901287030b9ad1a5497905f90a1565b606a5463ffffffff90811690871603611e71576040516302caf51760e11b815260040160405180910390fd5b606a546053546040517f501781209a1f8899323b96b4ef08b168df93e0a90c673d1e4cce39366cb62f9b92611ebd9260019263ffffffff9092169133918c918c918c918b918b91613bda565b60405180910390a1611ef36117c16001606a5f9054906101000a900463ffffffff16338a8a8a8989604051610ed19291906139c9565b8215610d9157610d91612199565b60408051600481526024810182526020810180516001600160e01b03167f06fdde030000000000000000000000000000000000000000000000000000000017905290516060915f9182916001600160a01b03861691611f6091906139d8565b5f60405180830381855afa9150503d805f8114611f98576040519150601f19603f3d011682016040523d82523d5f602084013e611f9d565b606091505b509150915081611fe2576040518060400160405280600781526020017f4e4f5f4e414d45000000000000000000000000000000000000000000000000008152506109f9565b6109f981612af8565b60408051600481526024810182526020810180516001600160e01b03167f95d89b410000000000000000000000000000000000000000000000000000000017905290516060915f9182916001600160a01b0386169161204a91906139d8565b5f60405180830381855afa9150503d805f8114612082576040519150601f19603f3d011682016040523d82523d5f602084013e612087565b606091505b509150915081611fe2576040518060400160405280600981526020017f4e4f5f53594d424f4c00000000000000000000000000000000000000000000008152506109f9565b60408051600481526024810182526020810180516001600160e01b03167f313ce5670000000000000000000000000000000000000000000000000000000017905290515f91829182916001600160a01b0386169161212a91906139d8565b5f60405180830381855afa9150503d805f8114612162576040519150601f19603f3d011682016040523d82523d5f602084013e612167565b606091505b509150915081801561217a575080516020145b6121855760126109f9565b808060200190518101906109f99190613c45565b605354606a805463ffffffff909216600160c01b027fffffffff00000000ffffffffffffffffffffffffffffffffffffffffffffffff90921691909117908190556001600160a01b03640100000000909104166333d6247d6121f96108fc565b6040518263ffffffff1660e01b815260040161221791815260200190565b5f604051808303815f87803b15801561222e575f80fd5b505af1158015612240573d5f803e3d5ffd5b50505050565b606a54604080516020808201879052818301869052825180830384018152606083019384905280519101207f257b36320000000000000000000000000000000000000000000000000000000090925260648101919091525f9164010000000090046001600160a01b03169063257b3632906084016020604051808303815f875af11580156122d6573d5f803e3d5ffd5b505050506040513d601f19601f820116820180604052508101906122fa9190613a53565b9050805f03612334576040517e2f6fad00000000000000000000000000000000000000000000000000000000815260040160405180910390fd5b5f806801000000000000000087161561237857869150612356848a8489611dd3565b612373576040516338105f3b60e21b815260040160405180910390fd5b6123c2565b602087901c612388816001613c60565b91508792506123a361239b868c86610a34565b8a8389611dd3565b6123c0576040516338105f3b60e21b815260040160405180910390fd5b505b6123cc8282612cc8565b505050505050505050565b6040516001600160a01b038316602482015260448101829052610a2f9084907fa9059cbb00000000000000000000000000000000000000000000000000000000906064015b60408051601f198184030181529190526020810180516001600160e01b03166001600160e01b031990931692909217909152612d83565b5f8060698360405160200161246992919061391c565b6040516020818303038152906040529050838151602083015ff591506001600160a01b0382166124c5576040517fbefb092000000000000000000000000000000000000000000000000000000000815260040160405180910390fd5b5092915050565b60026001540361251e5760405162461bcd60e51b815260206004820152601f60248201527f5265656e7472616e637947756172643a207265656e7472616e742063616c6c006044820152606401611b83565b6002600155565b5f6125336004828486613c7d565b61253c91613ca4565b90507f2afa5331000000000000000000000000000000000000000000000000000000006001600160e01b0319821601612716575f808080808080612583896004818d613c7d565b8101906125909190613cd4565b9650965096509650965096509650336001600160a01b0316876001600160a01b0316146125d05760405163912ecce760e01b815260040160405180910390fd5b6001600160a01b03861630146125f95760405163750643af60e01b815260040160405180910390fd5b8a8514612632576040517f03fffc4b00000000000000000000000000000000000000000000000000000000815260040160405180910390fd5b604080516001600160a01b0389811660248301528881166044830152606482018890526084820187905260ff861660a483015260c4820185905260e48083018590528351808403909101815261010490920183526020820180516001600160e01b03167fd505accf000000000000000000000000000000000000000000000000000000001790529151918e16916126c991906139d8565b5f604051808303815f865af19150503d805f8114612702576040519150601f19603f3d011682016040523d82523d5f602084013e612707565b606091505b505050505050505050506107b3565b6001600160e01b031981166323f2ebc360e21b14612760576040517fe282c0ba00000000000000000000000000000000000000000000000000000000815260040160405180910390fd5b5f808080808080806127758a6004818e613c7d565b8101906127829190613d23565b97509750975097509750975097509750336001600160a01b0316886001600160a01b0316146127c45760405163912ecce760e01b815260040160405180910390fd5b6001600160a01b03871630146127ed5760405163750643af60e01b815260040160405180910390fd5b604080516001600160a01b038a811660248301528981166044830152606482018990526084820188905286151560a483015260ff861660c483015260e482018590526101048083018590528351808403909101815261012490920183526020820180516001600160e01b03166323f2ebc360e21b1790529151918f169161287491906139d8565b5f604051808303815f865af19150503d805f81146128ad576040519150601f19603f3d011682016040523d82523d5f602084013e6128b2565b606091505b50505050505050505050505050505050565b6040516001600160a01b03808516602483015283166044820152606481018290526122409085907f23b872dd000000000000000000000000000000000000000000000000000000009060840161241c565b80600161292460206002613e81565b61292e9190613a6a565b60535410612968576040517fef5ccf6600000000000000000000000000000000000000000000000000000000815260040160405180910390fd5b5f60535f8154612977906137cc565b918290555090505f5b6020811015612a07578082901c6001166001036129b35782603382602081106129ab576129ab6137a4565b015550505050565b603381602081106129c6576129c66137a4565b0154604080516020810192909252810184905260600160405160208183030381529060405280519060200120925080806129ff906137cc565b915050612980565b50610a2f613e8c565b60018055565b60685460ff16612a52576040517f5386698100000000000000000000000000000000000000000000000000000000815260040160405180910390fd5b6068805460ff191690556040517f1e5e34eea33501aecf2ebec9fe0e884a40804275ea7fe10b2ba084c8374308b3905f90a1565b5f54610100900460ff16612af05760405162461bcd60e51b815260206004820152602b60248201527f496e697469616c697a61626c653a20636f6e7472616374206973206e6f74206960448201526a6e697469616c697a696e6760a81b6064820152608401611b83565b6106c5612e67565b60606040825110612b17578180602001905181019061072b9190613ea0565b8151602003612c8a575f5b602081108015612b695750828181518110612b3f57612b3f6137a4565b01602001517fff000000000000000000000000000000000000000000000000000000000000001615155b15612b805780612b78816137cc565b915050612b22565b805f03612bc257505060408051808201909152601281527f4e4f545f56414c49445f454e434f44494e4700000000000000000000000000006020820152919050565b5f8167ffffffffffffffff811115612bdc57612bdc613306565b6040519080825280601f01601f191660200182016040528015612c06576020820181803683370190505b5090505f5b82811015612c8257848181518110612c2557612c256137a4565b602001015160f81c60f81b828281518110612c4257612c426137a4565b60200101907effffffffffffffffffffffffffffffffffffffffffffffffffffffffffffff191690815f1a90535080612c7a816137cc565b915050612c0b565b509392505050565b505060408051808201909152601281527f4e4f545f56414c49445f454e434f44494e470000000000000000000000000000602082015290565b919050565b606a545f9063ffffffff16158015612ce6575063ffffffff82166001145b15612cf8575063ffffffff8216612d20565b612d0d64010000000063ffffffff841661399f565b612d1d9063ffffffff85166139b6565b90505b600881901c5f818152606b602052604081208054600160ff861690811b918218928390559290919081831690036117e1576040517f646cf55800000000000000000000000000000000000000000000000000000000815260040160405180910390fd5b5f612dd7826040518060400160405280602081526020017f5361666545524332303a206c6f772d6c6576656c2063616c6c206661696c6564815250856001600160a01b0316612ed19092919063ffffffff16565b805190915015610a2f5780806020019051810190612df59190613f12565b610a2f5760405162461bcd60e51b815260206004820152602a60248201527f5361666545524332303a204552433230206f7065726174696f6e20646964206e60448201527f6f742073756363656564000000000000000000000000000000000000000000006064820152608401611b83565b5f54610100900460ff16612a105760405162461bcd60e51b815260206004820152602b60248201527f496e697469616c697a61626c653a20636f6e7472616374206973206e6f74206960448201526a6e697469616c697a696e6760a81b6064820152608401611b83565b60606109f984845f85855f80866001600160a01b03168587604051612ef691906139d8565b5f6040518083038185875af1925050503d805f8114612f30576040519150601f19603f3d011682016040523d82523d5f602084013e612f35565b606091505b5091509150612f4687838387612f51565b979650505050505050565b60608315612fbf5782515f03612fb8576001600160a01b0385163b612fb85760405162461bcd60e51b815260206004820152601d60248201527f416464726573733a2063616c6c20746f206e6f6e2d636f6e74726163740000006044820152606401611b83565b50816109f9565b6109f98383815115612fd45781518083602001fd5b8060405162461bcd60e51b8152600401611b839190613161565b803563ffffffff81168114612cc3575f80fd5b6001600160a01b0381168114613015575f80fd5b50565b5f8060408385031215613029575f80fd5b61303283612fee565b9150602083013561304281613001565b809150509250929050565b8015158114613015575f80fd5b5f8083601f84011261306a575f80fd5b50813567ffffffffffffffff811115613081575f80fd5b602083019150836020828501011115613098575f80fd5b9250929050565b5f805f805f608086880312156130b3575f80fd5b6130bc86612fee565b945060208601356130cc81613001565b935060408601356130dc8161304d565b9250606086013567ffffffffffffffff8111156130f7575f80fd5b6131038882890161305a565b969995985093965092949392505050565b5f5b8381101561312e578181015183820152602001613116565b50505f910152565b5f815180845261314d816020860160208601613114565b601f01601f19169290920160200192915050565b602081525f6131736020830184613136565b9392505050565b5f6020828403121561318a575f80fd5b813561317381613001565b60ff81168114613015575f80fd5b5f805f805f805f60e0888a0312156131b9575f80fd5b87356131c481613195565b96506131d260208901612fee565b955060408801356131e281613001565b94506131f060608901612fee565b9350608088013561320081613001565b9699959850939692959460a0840135945060c09093013592915050565b5f805f6060848603121561322f575f80fd5b61323884612fee565b9250602084013561324881613001565b9150604084013561325881613001565b809150509250925092565b5f8060208385031215613274575f80fd5b823567ffffffffffffffff81111561328a575f80fd5b6132968582860161305a565b90969095509350505050565b5f602082840312156132b2575f80fd5b5035919050565b80610400810183101561072b575f80fd5b5f805f61044084860312156132dd575f80fd5b833592506132ee85602086016132b9565b91506132fd6104208501612fee565b90509250925092565b634e487b7160e01b5f52604160045260245ffd5b604051601f8201601f1916810167ffffffffffffffff8111828210171561334357613343613306565b604052919050565b5f67ffffffffffffffff82111561336457613364613306565b50601f01601f191660200190565b5f61338461337f8461334b565b61331a565b9050828152838383011115613397575f80fd5b828260208301375f602084830101529392505050565b5f82601f8301126133bc575f80fd5b61317383833560208501613372565b5f805f805f60a086880312156133df575f80fd5b6133e886612fee565b945060208601356133f881613001565b9350604086013567ffffffffffffffff80821115613414575f80fd5b61342089838a016133ad565b94506060880135915080821115613435575f80fd5b50613442888289016133ad565b925050608086013561345381613195565b809150509295509295909350565b5f805f805f8060a08789031215613476575f80fd5b61347f87612fee565b9550602087013561348f81613001565b94506040870135935060608701356134a68161304d565b9250608087013567ffffffffffffffff8111156134c1575f80fd5b6134cd89828a0161305a565b979a9699509497509295939492505050565b5f80604083850312156134f0575f80fd5b6134f983612fee565b915061350760208401612fee565b90509250929050565b5f805f805f805f805f805f806109208d8f03121561352c575f80fd5b6135368e8e6132b9565b9b506135468e6104008f016132b9565b9a506108008d013599506108208d013598506108408d0135975061356d6108608e01612fee565b965061357d6108808e0135613001565b6108808d013595506135926108a08e01612fee565b94506135a26108c08e0135613001565b6108c08d013593506108e08d0135925067ffffffffffffffff6109008e013511156135cb575f80fd5b6135dc8e6109008f01358f0161305a565b81935080925050509295989b509295989b509295989b565b5f805f805f805f60c0888a03121561360a575f80fd5b61361388612fee565b9650602088013561362381613001565b955060408801359450606088013561363a81613001565b9350608088013561364a8161304d565b925060a088013567ffffffffffffffff811115613665575f80fd5b6136718a828b0161305a565b989b979a50959850939692959293505050565b5f805f805f8060c08789031215613699575f80fd5b6136a287612fee565b955060208701356136b281613001565b94506136c060408801612fee565b935060608701356136d081613001565b925060808701356136e081613001565b915060a087013567ffffffffffffffff8111156136fb575f80fd5b8701601f8101891361370b575f80fd5b61371a89823560208401613372565b9150509295509295509295565b5f805f80610460858703121561373b575f80fd5b8435935061374c86602087016132b9565b925061375b6104208601612fee565b939692955092936104400135925050565b600181811c9082168061378057607f821691505b60208210810361379e57634e487b7160e01b5f52602260045260245ffd5b50919050565b634e487b7160e01b5f52603260045260245ffd5b634e487b7160e01b5f52601160045260245ffd5b5f600182016137dd576137dd6137b8565b5060010190565b601f821115610a2f575f81815260208120601f850160051c8101602086101561380a5750805b601f850160051c820191505b81811015610d9157828155600101613816565b67ffffffffffffffff83111561384157613841613306565b6138558361384f835461376c565b836137e4565b5f601f841160018114613886575f851561386f5750838201355b5f19600387901b1c1916600186901b1783556107b3565b5f83815260209020601f19861690835b828110156138b65786850135825560209485019460019092019101613896565b50868210156138d2575f1960f88860031b161c19848701351681555b505060018560011b0183555050505050565b606081525f6138f66060830186613136565b82810360208401526139088186613136565b91505060ff83166040830152949350505050565b5f8084546139298161376c565b60018281168015613941576001811461395657613982565b60ff1984168752821515830287019450613982565b885f526020805f205f5b858110156139795781548a820152908401908201613960565b50505082870194505b505050508351613996818360208801613114565b01949350505050565b808202811582820484141761072b5761072b6137b8565b8082018082111561072b5761072b6137b8565b818382375f9101908152919050565b5f82516139e9818460208701613114565b9190910192915050565b81835281816020850137505f828201602090810191909152601f909101601f19169091010190565b63ffffffff861681525f6001600160a01b03808716602084015280861660408401525060806060830152612f466080830184866139f3565b5f60208284031215613a63575f80fd5b5051919050565b8181038181111561072b5761072b6137b8565b5f61010060ff8b16835263ffffffff808b1660208501526001600160a01b03808b166040860152818a1660608601528089166080860152508660a08501528160c0850152613acd82850187613136565b925080851660e085015250509998505050505050505050565b6001600160a01b038516815263ffffffff84166020820152606060408201525f613b146060830184866139f3565b9695505050505050565b815167ffffffffffffffff811115613b3857613b38613306565b613b4c81613b46845461376c565b846137e4565b602080601f831160018114613b7f575f8415613b685750858301515b5f19600386901b1c1916600185901b178555610d91565b5f85815260208120601f198616915b82811015613bad57888601518255948401946001909101908401613b8e565b5085821015613bca57878501515f19600388901b60f8161c191681555b5050505050600190811b01905550565b5f61010060ff8c16835263ffffffff808c1660208501526001600160a01b03808c166040860152818b166060860152808a166080860152508760a08501528160c0850152613c2b82850187896139f3565b925080851660e085015250509a9950505050505050505050565b5f60208284031215613c55575f80fd5b815161317381613195565b63ffffffff8181168382160190808211156124c5576124c56137b8565b5f8085851115613c8b575f80fd5b83861115613c97575f80fd5b5050820193919092039150565b6001600160e01b03198135818116916004851015613ccc5780818660040360031b1b83161692505b505092915050565b5f805f805f805f60e0888a031215613cea575f80fd5b8735613cf581613001565b96506020880135613d0581613001565b95506040880135945060608801359350608088013561320081613195565b5f805f805f805f80610100898b031215613d3b575f80fd5b8835613d4681613001565b97506020890135613d5681613001565b965060408901359550606089013594506080890135613d748161304d565b935060a0890135613d8481613195565b979a969950949793969295929450505060c08201359160e0013590565b600181815b80851115613ddb57815f1904821115613dc157613dc16137b8565b80851615613dce57918102915b93841c9390800290613da6565b509250929050565b5f82613df15750600161072b565b81613dfd57505f61072b565b8160018114613e135760028114613e1d57613e39565b600191505061072b565b60ff841115613e2e57613e2e6137b8565b50506001821b61072b565b5060208310610133831016604e8410600b8410161715613e5c575081810a61072b565b613e668383613da1565b805f1904821115613e7957613e796137b8565b029392505050565b5f6131738383613de3565b634e487b7160e01b5f52600160045260245ffd5b5f60208284031215613eb0575f80fd5b815167ffffffffffffffff811115613ec6575f80fd5b8201601f81018413613ed6575f80fd5b8051613ee461337f8261334b565b818152856020838501011115613ef8575f80fd5b613f09826020830160208601613114565b95945050505050565b5f60208284031215613f22575f80fd5b81516131738161304d56fea26469706673582212205c3e71e3ade30560bbaf7782c931e59edad122a04141ef49116014fd36c41d1864736f6c6343000814003361010060405234801562000011575f80fd5b5060405162001b2238038062001b22833981016040819052620000349162000282565b828260036200004483826200038d565b5060046200005382826200038d565b50503360c0525060ff811660e05246608081905262000072906200007f565b60a0525062000455915050565b5f7f8b73c3c69bb8fe3d512ecc4cf759cc79239f7b179b0ffacaa9a75d522b39400f620000ab6200012c565b805160209182012060408051808201825260018152603160f81b90840152805192830193909352918101919091527fc89efdaa54c0f20c7adf612882df0950f5a951637e0307cdcb4c672f298b8bc66060820152608081018390523060a082015260c001604051602081830303815290604052805190602001209050919050565b6060600380546200013d9062000301565b80601f01602080910402602001604051908101604052809291908181526020018280546200016b9062000301565b8015620001ba5780601f106200019057610100808354040283529160200191620001ba565b820191905f5260205f20905b8154815290600101906020018083116200019c57829003601f168201915b5050505050905090565b634e487b7160e01b5f52604160045260245ffd5b5f82601f830112620001e8575f80fd5b81516001600160401b0380821115620002055762000205620001c4565b604051601f8301601f19908116603f01168101908282118183101715620002305762000230620001c4565b816040528381526020925086838588010111156200024c575f80fd5b5f91505b838210156200026f578582018301518183018401529082019062000250565b5f93810190920192909252949350505050565b5f805f6060848603121562000295575f80fd5b83516001600160401b0380821115620002ac575f80fd5b620002ba87838801620001d8565b94506020860151915080821115620002d0575f80fd5b50620002df86828701620001d8565b925050604084015160ff81168114620002f6575f80fd5b809150509250925092565b600181811c908216806200031657607f821691505b6020821081036200033557634e487b7160e01b5f52602260045260245ffd5b50919050565b601f82111562000388575f81815260208120601f850160051c81016020861015620003635750805b601f850160051c820191505b8181101562000384578281556001016200036f565b5050505b505050565b81516001600160401b03811115620003a957620003a9620001c4565b620003c181620003ba845462000301565b846200033b565b602080601f831160018114620003f7575f8415620003df5750858301515b5f19600386901b1c1916600185901b17855562000384565b5f85815260208120601f198616915b82811015620004275788860151825594840194600190910190840162000406565b50858210156200044557878501515f19600388901b60f8161c191681555b5050505050600190811b01905550565b60805160a05160c05160e0516116846200049e5f395f61023301525f8181610309015281816105c201526106a901525f61053d01525f818161037b015261050701526116845ff3fe608060405234801561000f575f80fd5b5060043610610179575f3560e01c80637ecebe00116100d2578063a9059cbb11610088578063dd62ed3e11610063578063dd62ed3e146103b0578063f8a8fd6d146103f5578063ffa1ad74146103fc575f80fd5b8063a9059cbb14610363578063cd0d009614610376578063d505accf1461039d575f80fd5b80639dc29fac116100b85780639dc29fac146102f1578063a3c573eb14610304578063a457c2d714610350575f80fd5b80637ecebe00146102ca57806395d89b41146102e9575f80fd5b806330adf81f11610132578063395093511161010d578063395093511461026d57806340c10f191461028057806370a0823114610295575f80fd5b806330adf81f1461020a578063313ce567146102315780633644e51514610265575f80fd5b806318160ddd1161016257806318160ddd146101be57806320606b70146101d057806323b872dd146101f7575f80fd5b806306fdde031461017d578063095ea7b31461019b575b5f80fd5b610185610438565b60405161019291906113d6565b60405180910390f35b6101ae6101a9366004611467565b6104c8565b6040519015158152602001610192565b6002545b604051908152602001610192565b6101c27f8b73c3c69bb8fe3d512ecc4cf759cc79239f7b179b0ffacaa9a75d522b39400f81565b6101ae61020536600461148f565b6104e1565b6101c27f6e71edae12b1b97f4d1f60370fef10105fa2faae0126114a169c64845d6126c981565b7f00000000000000000000000000000000000000000000000000000000000000005b60405160ff9091168152602001610192565b6101c2610504565b6101ae61027b366004611467565b61055f565b61029361028e366004611467565b6105aa565b005b6101c26102a33660046114c8565b73ffffffffffffffffffffffffffffffffffffffff165f9081526020819052604090205490565b6101c26102d83660046114c8565b60056020525f908152604090205481565b610185610682565b6102936102ff366004611467565b610691565b61032b7f000000000000000000000000000000000000000000000000000000000000000081565b60405173ffffffffffffffffffffffffffffffffffffffff9091168152602001610192565b6101ae61035e366004611467565b610760565b6101ae610371366004611467565b610830565b6101c27f000000000000000000000000000000000000000000000000000000000000000081565b6102936103ab3660046114e8565b61083d565b6101c26103be366004611555565b73ffffffffffffffffffffffffffffffffffffffff9182165f90815260016020908152604080832093909416825291909152205490565b6007610253565b6101856040518060400160405280600181526020017f310000000000000000000000000000000000000000000000000000000000000081525081565b60606003805461044790611586565b80601f016020809104026020016040519081016040528092919081815260200182805461047390611586565b80156104be5780601f10610495576101008083540402835291602001916104be565b820191905f5260205f20905b8154815290600101906020018083116104a157829003601f168201915b5050505050905090565b5f336104d5818585610b6e565b60019150505b92915050565b5f336104ee858285610d21565b6104f9858585610df7565b506001949350505050565b5f7f0000000000000000000000000000000000000000000000000000000000000000461461053a5761053546611064565b905090565b507f000000000000000000000000000000000000000000000000000000000000000090565b335f81815260016020908152604080832073ffffffffffffffffffffffffffffffffffffffff871684529091528120549091906104d590829086906105a5908790611604565b610b6e565b3373ffffffffffffffffffffffffffffffffffffffff7f00000000000000000000000000000000000000000000000000000000000000001614610674576040517f08c379a000000000000000000000000000000000000000000000000000000000815260206004820152603060248201527f546f6b656e577261707065643a3a6f6e6c794272696467653a204e6f7420506f60448201527f6c79676f6e5a6b45564d4272696467650000000000000000000000000000000060648201526084015b60405180910390fd5b61067e828261112b565b5050565b60606004805461044790611586565b3373ffffffffffffffffffffffffffffffffffffffff7f00000000000000000000000000000000000000000000000000000000000000001614610756576040517f08c379a000000000000000000000000000000000000000000000000000000000815260206004820152603060248201527f546f6b656e577261707065643a3a6f6e6c794272696467653a204e6f7420506f60448201527f6c79676f6e5a6b45564d42726964676500000000000000000000000000000000606482015260840161066b565b61067e828261121c565b335f81815260016020908152604080832073ffffffffffffffffffffffffffffffffffffffff8716845290915281205490919083811015610823576040517f08c379a000000000000000000000000000000000000000000000000000000000815260206004820152602560248201527f45524332303a2064656372656173656420616c6c6f77616e63652062656c6f7760448201527f207a65726f000000000000000000000000000000000000000000000000000000606482015260840161066b565b6104f98286868403610b6e565b5f336104d5818585610df7565b834211156108cc576040517f08c379a0000000000000000000000000000000000000000000000000000000008152602060048201526024808201527f546f6b656e577261707065643a3a7065726d69743a204578706972656420706560448201527f726d697400000000000000000000000000000000000000000000000000000000606482015260840161066b565b73ffffffffffffffffffffffffffffffffffffffff87165f90815260056020526040812080547f6e71edae12b1b97f4d1f60370fef10105fa2faae0126114a169c64845d6126c9918a918a918a91908661092583611617565b9091555060408051602081019690965273ffffffffffffffffffffffffffffffffffffffff94851690860152929091166060840152608083015260a082015260c0810186905260e0016040516020818303038152906040528051906020012090505f61098f610504565b6040517f19010000000000000000000000000000000000000000000000000000000000006020820152602281019190915260428101839052606201604080517fffffffffffffffffffffffffffffffffffffffffffffffffffffffffffffffe081840301815282825280516020918201205f80855291840180845281905260ff89169284019290925260608301879052608083018690529092509060019060a0016020604051602081039080840390855afa158015610a50573d5f803e3d5ffd5b50506040517fffffffffffffffffffffffffffffffffffffffffffffffffffffffffffffffe0015191505073ffffffffffffffffffffffffffffffffffffffff811615801590610acb57508973ffffffffffffffffffffffffffffffffffffffff168173ffffffffffffffffffffffffffffffffffffffff16145b610b57576040517f08c379a000000000000000000000000000000000000000000000000000000000815260206004820152602760248201527f546f6b656e577261707065643a3a7065726d69743a20496e76616c696420736960448201527f676e617475726500000000000000000000000000000000000000000000000000606482015260840161066b565b610b628a8a8a610b6e565b50505050505050505050565b73ffffffffffffffffffffffffffffffffffffffff8316610c10576040517f08c379a0000000000000000000000000000000000000000000000000000000008152602060048201526024808201527f45524332303a20617070726f76652066726f6d20746865207a65726f2061646460448201527f7265737300000000000000000000000000000000000000000000000000000000606482015260840161066b565b73ffffffffffffffffffffffffffffffffffffffff8216610cb3576040517f08c379a000000000000000000000000000000000000000000000000000000000815260206004820152602260248201527f45524332303a20617070726f766520746f20746865207a65726f20616464726560448201527f7373000000000000000000000000000000000000000000000000000000000000606482015260840161066b565b73ffffffffffffffffffffffffffffffffffffffff8381165f8181526001602090815260408083209487168084529482529182902085905590518481527f8c5be1e5ebec7d5bd14f71427d1e84f3dd0314c0f7b2291e5b200ac8c7c3b92591015b60405180910390a3505050565b73ffffffffffffffffffffffffffffffffffffffff8381165f908152600160209081526040808320938616835292905220547fffffffffffffffffffffffffffffffffffffffffffffffffffffffffffffffff8114610df15781811015610de4576040517f08c379a000000000000000000000000000000000000000000000000000000000815260206004820152601d60248201527f45524332303a20696e73756666696369656e7420616c6c6f77616e6365000000604482015260640161066b565b610df18484848403610b6e565b50505050565b73ffffffffffffffffffffffffffffffffffffffff8316610e9a576040517f08c379a000000000000000000000000000000000000000000000000000000000815260206004820152602560248201527f45524332303a207472616e736665722066726f6d20746865207a65726f20616460448201527f6472657373000000000000000000000000000000000000000000000000000000606482015260840161066b565b73ffffffffffffffffffffffffffffffffffffffff8216610f3d576040517f08c379a000000000000000000000000000000000000000000000000000000000815260206004820152602360248201527f45524332303a207472616e7366657220746f20746865207a65726f206164647260448201527f6573730000000000000000000000000000000000000000000000000000000000606482015260840161066b565b73ffffffffffffffffffffffffffffffffffffffff83165f9081526020819052604090205481811015610ff2576040517f08c379a000000000000000000000000000000000000000000000000000000000815260206004820152602660248201527f45524332303a207472616e7366657220616d6f756e742065786365656473206260448201527f616c616e63650000000000000000000000000000000000000000000000000000606482015260840161066b565b73ffffffffffffffffffffffffffffffffffffffff8481165f81815260208181526040808320878703905593871680835291849020805487019055925185815290927fddf252ad1be2c89b69c2b068fc378daa952ba7f163c4a11628f55a4df523b3ef910160405180910390a3610df1565b5f7f8b73c3c69bb8fe3d512ecc4cf759cc79239f7b179b0ffacaa9a75d522b39400f61108e610438565b8051602091820120604080518082018252600181527f310000000000000000000000000000000000000000000000000000000000000090840152805192830193909352918101919091527fc89efdaa54c0f20c7adf612882df0950f5a951637e0307cdcb4c672f298b8bc66060820152608081018390523060a082015260c001604051602081830303815290604052805190602001209050919050565b73ffffffffffffffffffffffffffffffffffffffff82166111a8576040517f08c379a000000000000000000000000000000000000000000000000000000000815260206004820152601f60248201527f45524332303a206d696e7420746f20746865207a65726f206164647265737300604482015260640161066b565b8060025f8282546111b99190611604565b909155505073ffffffffffffffffffffffffffffffffffffffff82165f81815260208181526040808320805486019055518481527fddf252ad1be2c89b69c2b068fc378daa952ba7f163c4a11628f55a4df523b3ef910160405180910390a35050565b73ffffffffffffffffffffffffffffffffffffffff82166112bf576040517f08c379a000000000000000000000000000000000000000000000000000000000815260206004820152602160248201527f45524332303a206275726e2066726f6d20746865207a65726f2061646472657360448201527f7300000000000000000000000000000000000000000000000000000000000000606482015260840161066b565b73ffffffffffffffffffffffffffffffffffffffff82165f9081526020819052604090205481811015611374576040517f08c379a000000000000000000000000000000000000000000000000000000000815260206004820152602260248201527f45524332303a206275726e20616d6f756e7420657863656564732062616c616e60448201527f6365000000000000000000000000000000000000000000000000000000000000606482015260840161066b565b73ffffffffffffffffffffffffffffffffffffffff83165f818152602081815260408083208686039055600280548790039055518581529192917fddf252ad1be2c89b69c2b068fc378daa952ba7f163c4a11628f55a4df523b3ef9101610d14565b5f6020808352835180828501525f5b81811015611401578581018301518582016040015282016113e5565b505f6040828601015260407fffffffffffffffffffffffffffffffffffffffffffffffffffffffffffffffe0601f8301168501019250505092915050565b803573ffffffffffffffffffffffffffffffffffffffff81168114611462575f80fd5b919050565b5f8060408385031215611478575f80fd5b6114818361143f565b946020939093013593505050565b5f805f606084860312156114a1575f80fd5b6114aa8461143f565b92506114b86020850161143f565b9150604084013590509250925092565b5f602082840312156114d8575f80fd5b6114e18261143f565b9392505050565b5f805f805f805f60e0888a0312156114fe575f80fd5b6115078861143f565b96506115156020890161143f565b95506040880135945060608801359350608088013560ff81168114611538575f80fd5b9699959850939692959460a0840135945060c09093013592915050565b5f8060408385031215611566575f80fd5b61156f8361143f565b915061157d6020840161143f565b90509250929050565b600181811c9082168061159a57607f821691505b6020821081036115d1577f4e487b71000000000000000000000000000000000000000000000000000000005f52602260045260245ffd5b50919050565b7f4e487b71000000000000000000000000000000000000000000000000000000005f52601160045260245ffd5b808201808211156104db576104db6115d7565b5f7fffffffffffffffffffffffffffffffffffffffffffffffffffffffffffffffff8203611647576116476115d7565b506001019056fea2646970667358221220fcd216ad57ad61319f9c9a0e3b55094f5fdd4cb3db733a338a2962602de0dbc864736f6c63430008140033",
  "linkReferences": {},
  "deployedLinkReferences": {}
}