{
  "_format": "hh-sol-artifact-1",
  "contractName": "TokenWrapped",
  "sourceName": "contracts/lib/TokenWrapped.sol",
  "abi": [
    {
      "inputs": [
        {
          "internalType": "string",
          "name": "name",
          "type": "string"
        },
        {
          "internalType": "string",
          "name": "symbol",
          "type": "string"
        },
        {
          "internalType": "uint8",
          "name": "__decimals",
          "type": "uint8"
        }
      ],
      "stateMutability": "nonpayable",
      "type": "constructor"
    },
    {
      "anonymous": false,
      "inputs": [
        {
          "indexed": true,
          "internalType": "address",
          "name": "owner",
          "type": "address"
        },
        {
          "indexed": true,
          "internalType": "address",
          "name": "spender",
          "type": "address"
        },
        {
          "indexed": false,
          "internalType": "uint256",
          "name": "value",
          "type": "uint256"
        }
      ],
      "name": "Approval",
      "type": "event"
    },
    {
      "anonymous": false,
      "inputs": [
        {
          "indexed": true,
          "internalType": "address",
          "name": "from",
          "type": "address"
        },
        {
          "indexed": true,
          "internalType": "address",
          "name": "to",
          "type": "address"
        },
        {
          "indexed": false,
          "internalType": "uint256",
          "name": "value",
          "type": "uint256"
        }
      ],
      "name": "Transfer",
      "type": "event"
    },
    {
      "inputs": [],
      "name": "DOMAIN_SEPARATOR",
      "outputs": [
        {
          "internalType": "bytes32",
          "name": "",
          "type": "bytes32"
        }
      ],
      "stateMutability": "view",
      "type": "function"
    },
    {
      "inputs": [],
      "name": "DOMAIN_TYPEHASH",
      "outputs": [
        {
          "internalType": "bytes32",
          "name": "",
          "type": "bytes32"
        }
      ],
      "stateMutability": "view",
      "type": "function"
    },
    {
      "inputs": [],
      "name": "PERMIT_TYPEHASH",
      "outputs": [
        {
          "internalType": "bytes32",
          "name": "",
          "type": "bytes32"
        }
      ],
      "stateMutability": "view",
      "type": "function"
    },
    {
      "inputs": [],
      "name": "VERSION",
      "outputs": [
        {
          "internalType": "string",
          "name": "",
          "type": "string"
        }
      ],
      "stateMutability": "view",
      "type": "function"
    },
    {
      "inputs": [
        {
          "internalType": "address",
          "name": "owner",
          "type": "address"
        },
        {
          "internalType": "address",
          "name": "spender",
          "type": "address"
        }
      ],
      "name": "allowance",
      "outputs": [
        {
          "internalType": "uint256",
          "name": "",
          "type": "uint256"
        }
      ],
      "stateMutability": "view",
      "type": "function"
    },
    {
      "inputs": [
        {
          "internalType": "address",
          "name": "spender",
          "type": "address"
        },
        {
          "internalType": "uint256",
          "name": "amount",
          "type": "uint256"
        }
      ],
      "name": "approve",
      "outputs": [
        {
          "internalType": "bool",
          "name": "",
          "type": "bool"
        }
      ],
      "stateMutability": "nonpayable",
      "type": "function"
    },
    {
      "inputs": [
        {
          "internalType": "address",
          "name": "account",
          "type": "address"
        }
      ],
      "name": "balanceOf",
      "outputs": [
        {
          "internalType": "uint256",
          "name": "",
          "type": "uint256"
        }
      ],
      "stateMutability": "view",
      "type": "function"
    },
    {
      "inputs": [],
      "name": "bridgeAddress",
      "outputs": [
        {
          "internalType": "address",
          "name": "",
          "type": "address"
        }
      ],
      "stateMutability": "view",
      "type": "function"
    },
    {
      "inputs": [
        {
          "internalType": "address",
          "name": "account",
          "type": "address"
        },
        {
          "internalType": "uint256",
          "name": "value",
          "type": "uint256"
        }
      ],
      "name": "burn",
      "outputs": [],
      "stateMutability": "nonpayable",
      "type": "function"
    },
    {
      "inputs": [],
      "name": "decimals",
      "outputs": [
        {
          "internalType": "uint8",
          "name": "",
          "type": "uint8"
        }
      ],
      "stateMutability": "view",
      "type": "function"
    },
    {
      "inputs": [
        {
          "internalType": "address",
          "name": "spender",
          "type": "address"
        },
        {
          "internalType": "uint256",
          "name": "subtractedValue",
          "type": "uint256"
        }
      ],
      "name": "decreaseAllowance",
      "outputs": [
        {
          "internalType": "bool",
          "name": "",
          "type": "bool"
        }
      ],
      "stateMutability": "nonpayable",
      "type": "function"
    },
    {
      "inputs": [],
      "name": "deploymentChainId",
      "outputs": [
        {
          "internalType": "uint256",
          "name": "",
          "type": "uint256"
        }
      ],
      "stateMutability": "view",
      "type": "function"
    },
    {
      "inputs": [
        {
          "internalType": "address",
          "name": "spender",
          "type": "address"
        },
        {
          "internalType": "uint256",
          "name": "addedValue",
          "type": "uint256"
        }
      ],
      "name": "increaseAllowance",
      "outputs": [
        {
          "internalType": "bool",
          "name": "",
          "type": "bool"
        }
      ],
      "stateMutability": "nonpayable",
      "type": "function"
    },
    {
      "inputs": [
        {
          "internalType": "address",
          "name": "to",
          "type": "address"
        },
        {
          "internalType": "uint256",
          "name": "value",
          "type": "uint256"
        }
      ],
      "name": "mint",
      "outputs": [],
      "stateMutability": "nonpayable",
      "type": "function"
    },
    {
      "inputs": [],
      "name": "name",
      "outputs": [
        {
          "internalType": "string",
          "name": "",
          "type": "string"
        }
      ],
      "stateMutability": "view",
      "type": "function"
    },
    {
      "inputs": [
        {
          "internalType": "address",
          "name": "",
          "type": "address"
        }
      ],
      "name": "nonces",
      "outputs": [
        {
          "internalType": "uint256",
          "name": "",
          "type": "uint256"
        }
      ],
      "stateMutability": "view",
      "type": "function"
    },
    {
      "inputs": [
        {
          "internalType": "address",
          "name": "owner",
          "type": "address"
        },
        {
          "internalType": "address",
          "name": "spender",
          "type": "address"
        },
        {
          "internalType": "uint256",
          "name": "value",
          "type": "uint256"
        },
        {
          "internalType": "uint256",
          "name": "deadline",
          "type": "uint256"
        },
        {
          "internalType": "uint8",
          "name": "v",
          "type": "uint8"
        },
        {
          "internalType": "bytes32",
          "name": "r",
          "type": "bytes32"
        },
        {
          "internalType": "bytes32",
          "name": "s",
          "type": "bytes32"
        }
      ],
      "name": "permit",
      "outputs": [],
      "stateMutability": "nonpayable",
      "type": "function"
    },
    {
      "inputs": [],
      "name": "symbol",
      "outputs": [
        {
          "internalType": "string",
          "name": "",
          "type": "string"
        }
      ],
      "stateMutability": "view",
      "type": "function"
    },
    {
      "inputs": [],
      "name": "test",
      "outputs": [
        {
          "internalType": "uint8",
          "name": "",
          "type": "uint8"
        }
      ],
      "stateMutability": "view",
      "type": "function"
    },
    {
      "inputs": [],
      "name": "totalSupply",
      "outputs": [
        {
          "internalType": "uint256",
          "name": "",
          "type": "uint256"
        }
      ],
      "stateMutability": "view",
      "type": "function"
    },
    {
      "inputs": [
        {
          "internalType": "address",
          "name": "to",
          "type": "address"
        },
        {
          "internalType": "uint256",
          "name": "amount",
          "type": "uint256"
        }
      ],
      "name": "transfer",
      "outputs": [
        {
          "internalType": "bool",
          "name": "",
          "type": "bool"
        }
      ],
      "stateMutability": "nonpayable",
      "type": "function"
    },
    {
      "inputs": [
        {
          "internalType": "address",
          "name": "from",
          "type": "address"
        },
        {
          "internalType": "address",
          "name": "to",
          "type": "address"
        },
        {
          "internalType": "uint256",
          "name": "amount",
          "type": "uint256"
        }
      ],
      "name": "transferFrom",
      "outputs": [
        {
          "internalType": "bool",
          "name": "",
          "type": "bool"
        }
      ],
      "stateMutability": "nonpayable",
      "type": "function"
    }
  ],
  "bytecode": "0x61010060405234801562000011575f80fd5b5060405162001b2238038062001b22833981016040819052620000349162000282565b828260036200004483826200038d565b5060046200005382826200038d565b50503360c0525060ff811660e05246608081905262000072906200007f565b60a0525062000455915050565b5f7f8b73c3c69bb8fe3d512ecc4cf759cc79239f7b179b0ffacaa9a75d522b39400f620000ab6200012c565b805160209182012060408051808201825260018152603160f81b90840152805192830193909352918101919091527fc89efdaa54c0f20c7adf612882df0950f5a951637e0307cdcb4c672f298b8bc66060820152608081018390523060a082015260c001604051602081830303815290604052805190602001209050919050565b6060600380546200013d9062000301565b80601f01602080910402602001604051908101604052809291908181526020018280546200016b9062000301565b8015620001ba5780601f106200019057610100808354040283529160200191620001ba565b820191905f5260205f20905b8154815290600101906020018083116200019c57829003601f168201915b5050505050905090565b634e487b7160e01b5f52604160045260245ffd5b5f82601f830112620001e8575f80fd5b81516001600160401b0380821115620002055762000205620001c4565b604051601f8301601f19908116603f01168101908282118183101715620002305762000230620001c4565b816040528381526020925086838588010111156200024c575f80fd5b5f91505b838210156200026f578582018301518183018401529082019062000250565b5f93810190920192909252949350505050565b5f805f6060848603121562000295575f80fd5b83516001600160401b0380821115620002ac575f80fd5b620002ba87838801620001d8565b94506020860151915080821115620002d0575f80fd5b50620002df86828701620001d8565b925050604084015160ff81168114620002f6575f80fd5b809150509250925092565b600181811c908216806200031657607f821691505b6020821081036200033557634e487b7160e01b5f52602260045260245ffd5b50919050565b601f82111562000388575f81815260208120601f850160051c81016020861015620003635750805b601f850160051c820191505b8181101562000384578281556001016200036f565b5050505b505050565b81516001600160401b03811115620003a957620003a9620001c4565b620003c181620003ba845462000301565b846200033b565b602080601f831160018114620003f7575f8415620003df5750858301515b5f19600386901b1c1916600185901b17855562000384565b5f85815260208120601f198616915b82811015620004275788860151825594840194600190910190840162000406565b50858210156200044557878501515f19600388901b60f8161c191681555b5050505050600190811b01905550565b60805160a05160c05160e0516116846200049e5f395f61023301525f8181610309015281816105c201526106a901525f61053d01525f818161037b015261050701526116845ff3fe608060405234801561000f575f80fd5b5060043610610179575f3560e01c80637ecebe00116100d2578063a9059cbb11610088578063dd62ed3e11610063578063dd62ed3e146103b0578063f8a8fd6d146103f5578063ffa1ad74146103fc575f80fd5b8063a9059cbb14610363578063cd0d009614610376578063d505accf1461039d575f80fd5b80639dc29fac116100b85780639dc29fac146102f1578063a3c573eb14610304578063a457c2d714610350575f80fd5b80637ecebe00146102ca57806395d89b41146102e9575f80fd5b806330adf81f11610132578063395093511161010d578063395093511461026d57806340c10f191461028057806370a0823114610295575f80fd5b806330adf81f1461020a578063313ce567146102315780633644e51514610265575f80fd5b806318160ddd1161016257806318160ddd146101be57806320606b70146101d057806323b872dd146101f7575f80fd5b806306fdde031461017d578063095ea7b31461019b575b5f80fd5b610185610438565b60405161019291906113d6565b60405180910390f35b6101ae6101a9366004611467565b6104c8565b6040519015158152602001610192565b6002545b604051908152602001610192565b6101c27f8b73c3c69bb8fe3d512ecc4cf759cc79239f7b179b0ffacaa9a75d522b39400f81565b6101ae61020536600461148f565b6104e1565b6101c27f6e71edae12b1b97f4d1f60370fef10105fa2faae0126114a169c64845d6126c981565b7f00000000000000000000000000000000000000000000000000000000000000005b60405160ff9091168152602001610192565b6101c2610504565b6101ae61027b366004611467565b61055f565b61029361028e366004611467565b6105aa565b005b6101c26102a33660046114c8565b73ffffffffffffffffffffffffffffffffffffffff165f9081526020819052604090205490565b6101c26102d83660046114c8565b60056020525f908152604090205481565b610185610682565b6102936102ff366004611467565b610691565b61032b7f000000000000000000000000000000000000000000000000000000000000000081565b60405173ffffffffffffffffffffffffffffffffffffffff9091168152602001610192565b6101ae61035e366004611467565b610760565b6101ae610371366004611467565b610830565b6101c27f000000000000000000000000000000000000000000000000000000000000000081565b6102936103ab3660046114e8565b61083d565b6101c26103be366004611555565b73ffffffffffffffffffffffffffffffffffffffff9182165f90815260016020908152604080832093909416825291909152205490565b6007610253565b6101856040518060400160405280600181526020017f310000000000000000000000000000000000000000000000000000000000000081525081565b60606003805461044790611586565b80601f016020809104026020016040519081016040528092919081815260200182805461047390611586565b80156104be5780601f10610495576101008083540402835291602001916104be565b820191905f5260205f20905b8154815290600101906020018083116104a157829003601f168201915b5050505050905090565b5f336104d5818585610b6e565b60019150505b92915050565b5f336104ee858285610d21565b6104f9858585610df7565b506001949350505050565b5f7f0000000000000000000000000000000000000000000000000000000000000000461461053a5761053546611064565b905090565b507f000000000000000000000000000000000000000000000000000000000000000090565b335f81815260016020908152604080832073ffffffffffffffffffffffffffffffffffffffff871684529091528120549091906104d590829086906105a5908790611604565b610b6e565b3373ffffffffffffffffffffffffffffffffffffffff7f00000000000000000000000000000000000000000000000000000000000000001614610674576040517f08c379a000000000000000000000000000000000000000000000000000000000815260206004820152603060248201527f546f6b656e577261707065643a3a6f6e6c794272696467653a204e6f7420506f60448201527f6c79676f6e5a6b45564d4272696467650000000000000000000000000000000060648201526084015b60405180910390fd5b61067e828261112b565b5050565b60606004805461044790611586565b3373ffffffffffffffffffffffffffffffffffffffff7f00000000000000000000000000000000000000000000000000000000000000001614610756576040517f08c379a000000000000000000000000000000000000000000000000000000000815260206004820152603060248201527f546f6b656e577261707065643a3a6f6e6c794272696467653a204e6f7420506f60448201527f6c79676f6e5a6b45564d42726964676500000000000000000000000000000000606482015260840161066b565b61067e828261121c565b335f81815260016020908152604080832073ffffffffffffffffffffffffffffffffffffffff8716845290915281205490919083811015610823576040517f08c379a000000000000000000000000000000000000000000000000000000000815260206004820152602560248201527f45524332303a2064656372656173656420616c6c6f77616e63652062656c6f7760448201527f207a65726f000000000000000000000000000000000000000000000000000000606482015260840161066b565b6104f98286868403610b6e565b5f336104d5818585610df7565b834211156108cc576040517f08c379a0000000000000000000000000000000000000000000000000000000008152602060048201526024808201527f546f6b656e577261707065643a3a7065726d69743a204578706972656420706560448201527f726d697400000000000000000000000000000000000000000000000000000000606482015260840161066b565b73ffffffffffffffffffffffffffffffffffffffff87165f90815260056020526040812080547f6e71edae12b1b97f4d1f60370fef10105fa2faae0126114a169c64845d6126c9918a918a918a91908661092583611617565b9091555060408051602081019690965273ffffffffffffffffffffffffffffffffffffffff94851690860152929091166060840152608083015260a082015260c0810186905260e0016040516020818303038152906040528051906020012090505f61098f610504565b6040517f19010000000000000000000000000000000000000000000000000000000000006020820152602281019190915260428101839052606201604080517fffffffffffffffffffffffffffffffffffffffffffffffffffffffffffffffe081840301815282825280516020918201205f80855291840180845281905260ff89169284019290925260608301879052608083018690529092509060019060a0016020604051602081039080840390855afa158015610a50573d5f803e3d5ffd5b50506040517fffffffffffffffffffffffffffffffffffffffffffffffffffffffffffffffe0015191505073ffffffffffffffffffffffffffffffffffffffff811615801590610acb57508973ffffffffffffffffffffffffffffffffffffffff168173ffffffffffffffffffffffffffffffffffffffff16145b610b57576040517f08c379a000000000000000000000000000000000000000000000000000000000815260206004820152602760248201527f546f6b656e577261707065643a3a7065726d69743a20496e76616c696420736960448201527f676e617475726500000000000000000000000000000000000000000000000000606482015260840161066b565b610b628a8a8a610b6e565b50505050505050505050565b73ffffffffffffffffffffffffffffffffffffffff8316610c10576040517f08c379a0000000000000000000000000000000000000000000000000000000008152602060048201526024808201527f45524332303a20617070726f76652066726f6d20746865207a65726f2061646460448201527f7265737300000000000000000000000000000000000000000000000000000000606482015260840161066b565b73ffffffffffffffffffffffffffffffffffffffff8216610cb3576040517f08c379a000000000000000000000000000000000000000000000000000000000815260206004820152602260248201527f45524332303a20617070726f766520746f20746865207a65726f20616464726560448201527f7373000000000000000000000000000000000000000000000000000000000000606482015260840161066b565b73ffffffffffffffffffffffffffffffffffffffff8381165f8181526001602090815260408083209487168084529482529182902085905590518481527f8c5be1e5ebec7d5bd14f71427d1e84f3dd0314c0f7b2291e5b200ac8c7c3b92591015b60405180910390a3505050565b73ffffffffffffffffffffffffffffffffffffffff8381165f908152600160209081526040808320938616835292905220547fffffffffffffffffffffffffffffffffffffffffffffffffffffffffffffffff8114610df15781811015610de4576040517f08c379a000000000000000000000000000000000000000000000000000000000815260206004820152601d60248201527f45524332303a20696e73756666696369656e7420616c6c6f77616e6365000000604482015260640161066b565b610df18484848403610b6e565b50505050565b73ffffffffffffffffffffffffffffffffffffffff8316610e9a576040517f08c379a000000000000000000000000000000000000000000000000000000000815260206004820152602560248201527f45524332303a207472616e736665722066726f6d20746865207a65726f20616460448201527f6472657373000000000000000000000000000000000000000000000000000000606482015260840161066b565b73ffffffffffffffffffffffffffffffffffffffff8216610f3d576040517f08c379a000000000000000000000000000000000000000000000000000000000815260206004820152602360248201527f45524332303a207472616e7366657220746f20746865207a65726f206164647260448201527f6573730000000000000000000000000000000000000000000000000000000000606482015260840161066b565b73ffffffffffffffffffffffffffffffffffffffff83165f9081526020819052604090205481811015610ff2576040517f08c379a000000000000000000000000000000000000000000000000000000000815260206004820152602660248201527f45524332303a207472616e7366657220616d6f756e742065786365656473206260448201527f616c616e63650000000000000000000000000000000000000000000000000000606482015260840161066b565b73ffffffffffffffffffffffffffffffffffffffff8481165f81815260208181526040808320878703905593871680835291849020805487019055925185815290927fddf252ad1be2c89b69c2b068fc378daa952ba7f163c4a11628f55a4df523b3ef910160405180910390a3610df1565b5f7f8b73c3c69bb8fe3d512ecc4cf759cc79239f7b179b0ffacaa9a75d522b39400f61108e610438565b8051602091820120604080518082018252600181527f310000000000000000000000000000000000000000000000000000000000000090840152805192830193909352918101919091527fc89efdaa54c0f20c7adf612882df0950f5a951637e0307cdcb4c672f298b8bc66060820152608081018390523060a082015260c001604051602081830303815290604052805190602001209050919050565b73ffffffffffffffffffffffffffffffffffffffff82166111a8576040517f08c379a000000000000000000000000000000000000000000000000000000000815260206004820152601f60248201527f45524332303a206d696e7420746f20746865207a65726f206164647265737300604482015260640161066b565b8060025f8282546111b99190611604565b909155505073ffffffffffffffffffffffffffffffffffffffff82165f81815260208181526040808320805486019055518481527fddf252ad1be2c89b69c2b068fc378daa952ba7f163c4a11628f55a4df523b3ef910160405180910390a35050565b73ffffffffffffffffffffffffffffffffffffffff82166112bf576040517f08c379a000000000000000000000000000000000000000000000000000000000815260206004820152602160248201527f45524332303a206275726e2066726f6d20746865207a65726f2061646472657360448201527f7300000000000000000000000000000000000000000000000000000000000000606482015260840161066b565b73ffffffffffffffffffffffffffffffffffffffff82165f9081526020819052604090205481811015611374576040517f08c379a000000000000000000000000000000000000000000000000000000000815260206004820152602260248201527f45524332303a206275726e20616d6f756e7420657863656564732062616c616e60448201527f6365000000000000000000000000000000000000000000000000000000000000606482015260840161066b565b73ffffffffffffffffffffffffffffffffffffffff83165f818152602081815260408083208686039055600280548790039055518581529192917fddf252ad1be2c89b69c2b068fc378daa952ba7f163c4a11628f55a4df523b3ef9101610d14565b5f6020808352835180828501525f5b81811015611401578581018301518582016040015282016113e5565b505f6040828601015260407fffffffffffffffffffffffffffffffffffffffffffffffffffffffffffffffe0601f8301168501019250505092915050565b803573ffffffffffffffffffffffffffffffffffffffff81168114611462575f80fd5b919050565b5f8060408385031215611478575f80fd5b6114818361143f565b946020939093013593505050565b5f805f606084860312156114a1575f80fd5b6114aa8461143f565b92506114b86020850161143f565b9150604084013590509250925092565b5f602082840312156114d8575f80fd5b6114e18261143f565b9392505050565b5f805f805f805f60e0888a0312156114fe575f80fd5b6115078861143f565b96506115156020890161143f565b95506040880135945060608801359350608088013560ff81168114611538575f80fd5b9699959850939692959460a0840135945060c09093013592915050565b5f8060408385031215611566575f80fd5b61156f8361143f565b915061157d6020840161143f565b90509250929050565b600181811c9082168061159a57607f821691505b6020821081036115d1577f4e487b71000000000000000000000000000000000000000000000000000000005f52602260045260245ffd5b50919050565b7f4e487b71000000000000000000000000000000000000000000000000000000005f52601160045260245ffd5b808201808211156104db576104db6115d7565b5f7fffffffffffffffffffffffffffffffffffffffffffffffffffffffffffffffff8203611647576116476115d7565b506001019056fea2646970667358221220fcd216ad57ad61319f9c9a0e3b55094f5fdd4cb3db733a338a2962602de0dbc864736f6c63430008140033",
  "linkReferences": {},
  "deployedLinkReferences": {}
}